:100000000C942A000C94AC080C94D8080C940409A5
:100010000C9447000C9447000C9447000C94470044
:100020000C9447000C9447000C9447000C94470034
:100030000C9447000C9447000C9447000C94470024
:100040000C9447000C9447000C9447000C94470014
:100050000C94470011241FBECFE5D8E0DEBFCDBF12
:1000600011E0A0E6B0E0E4E6F2E102C005900D92F6
:10007000A232B107D9F721E0A2E2B1E001C01D929E
:10008000A533B207E1F70E942C020C9430090C94BE
:10009000000060912C0140E08EE690E00E94AD04EB
:1000A00080932A0180912C018F5F80932C01809195
:1000B0002C01837080932C0162ED70E08EE690E05D
:1000C0000E948A0480932A0160912C0140E08EE610
:1000D00090E00E94AD0480932A0160E08EE690E0FB
:1000E0000E94390480932A01089560912B014FE00A
:1000F0008EE690E00E94AD0480932A0180912B014E
:100100008F5F80932B0180912B01837080932B0153
:1001100062ED70E08EE690E00E948A0480932A01EE
:1001200060912B014FE08EE690E00E94AD04809339
:100130002A0160E08EE690E00E94390480932A0153
:1001400008958EE690E00E941A0540E050E062E0DB
:1001500083E00E94570640E050E063E083E00E94A5
:100160005706609126017091270180912801909196
:1001700029010E94E3056091620070916300809103
:100180006400909165000E94E305609126017091E2
:100190002701809128019091290140E00E94E90502
:1001A000609162007091630080916400909165009D
:1001B00040E00E94E905809161000E940106809163
:1001C00060000E9484034FEF50E064E083E00E94EF
:1001D0005706089510922C0110922B0160912C016A
:1001E00040E08EE690E00E94AD0460E08EE690E094
:1001F0000E94390460912B014FE08EE690E00E944E
:10020000AD0460E08EE690E00E9439040895CF933B
:10021000DF93AC01E0912E01F0E0EE58FF4F20811A
:1002200090912C012917B9F0EA01409124014F5F08
:10023000409324016091620070916300809164009A
:10024000909165000E94E905809160000E948F03F3
:1002500091E0988301C080E0DF91CF910895CF9322
:10026000DF93AC01E0912E01F0E0EE58FF4F2081CA
:1002700090912B012917B9F0EA01409125014F5FB8
:1002800040932501609126017091270180912801FA
:10029000909129010E94E905809160000E948F03DE
:1002A00091E0988301C080E0DF91CF910895809321
:1002B0002D0180E061C08AE690E00E94AC0786E6EE
:1002C00090E00E94AC0740912D01E0912E01F0E0FA
:1002D000EE58FF4F60818EE690E00E94AD0461E031
:1002E0008EE690E00E9439048AE690E00E9494072E
:1002F00086E690E00E94940780912E018F5F8093A4
:100300002E012FEF82E597E0215080409040E1F7E9
:1003100000C00000809160000E94AA038AE690E07D
:100320000E94AC0786E690E00E94AC0740912D0148
:10033000E0912E01F0E0EF58FF4F60818EE690E0F3
:100340000E94AD0462ED70E08EE690E00E948A04A7
:100350008AE690E00E94940786E690E00E94940767
:1003600090912E01973018F091E090932E0190918A
:100370002D019F5F90932D0190912D019F3008F4E6
:100380009ACF089580932D0180E061C08AE690E0C5
:100390000E94AC0786E690E00E94AC0740912D01D8
:1003A000E0912E01F0E0EE58FF4F60818EE690E084
:1003B0000E94AD0461E08EE690E00E9439048AE676
:1003C00090E00E94940786E690E00E949407809156
:1003D0002E018F5F80932E012FEF82E597E0215051
:1003E00080409040E1F700C00000809160000E94D2
:1003F000AA038AE690E00E94AC0786E690E00E949D
:10040000AC0740912D01E0912E01F0E0EF58FF4F35
:1004100060818EE690E00E94AD0462ED70E08EE6B1
:1004200090E00E948A048AE690E00E94940786E6A3
:1004300090E00E94940790912E01973018F091E07F
:1004400090932E0190912D01915090932D019091B8
:100450002D0191119BCF08950E94A10080932A0144
:1004600041E061E08EE690E00E94AD0480932A01B5
:100470006BE970E08EE690E00E948A0480932A0186
:10048000809161000E942B068093230106C0809119
:1004900061000E942B068093230180912301882311
:1004A000B1F38EE690E00E940C0580932A0100E0F3
:1004B00020E040E06AE171E08EE690E00E94D10425
:1004C00080932A0120E041E062E171E08EE690E055
:1004D0000E94D10480932A018AE690E00E94960847
:1004E00080932A0186E690E00E94960880932A0174
:1004F0008AE690E00E94AC0780932A0186E690E0AD
:100500000E94AC0780932A011092250110922401C9
:100510006091260170912701809128019091290115
:1005200040E00E94E90580932A0160916200709189
:1005300063008091640090916500409124010E94C5
:10054000E90580932A0141E061E08EE690E00E9497
:10055000AD0480932A01C5E0D0E022C041E061E013
:100560008EE690E00E94AD0480932A0167EB70E074
:100570008EE690E00E948A0480932A016C2F605DD1
:100580008EE690E00E94390480932A012FEF81EEDD
:1005900094E0215080409040E1F700C00000219796
:1005A0001C161D06DCF28EE690E00E940C0580937E
:1005B0002A018AE690E00E94940780932A0186E649
:1005C00090E00E94940780932A010E94EA008093A1
:1005D0002A0124C081E00E94570180932A0182E20F
:1005E00091E00E942F0180932A01809122018111C4
:1005F00010922201809125018330C1F08EE00E948B
:10060000C20180932A0182E291E00E940701809357
:100610002A018091220181111092220180912501ED
:10062000833020F4809124018330A0F28AE690E0A8
:100630000E94AC0780932A0186E690E00E94AC07F6
:1006400080932A018EE690E00E940C0580932A0197
:1006500080912501833089F441E061E08EE690E0ED
:100660000E94AD0480932A0164ED70E08EE690E074
:100670000E948A0480932A0110C041E061E08EE666
:1006800090E00E94AD0480932A0163EE70E08EE654
:1006900090E00E948A0480932A012FEF8DE399E471
:1006A000215080409040E1F700C000008EE690E0CD
:1006B0000E940C0580932A0140E061E08EE690E004
:1006C0000E94AD0480932A0162EF70E08EE690E014
:1006D0000E948A0480932A01809161000E942B0667
:1006E0008093230106C0809161000E942B068093B5
:1006F0002301809123018823B1F38EE690E00E94CC
:100700000C0580932A0100CF682F66956695669543
:100710006F704FEF50E087700E9457060895982F32
:10072000907851F4682F6695669566956F7040E0F5
:1007300087700E94B7060895992351F0682F669537
:10074000669566956F704FEF87700E94B7060895A3
:1007500081E00895982F907851F4682F66956695FA
:1007600066956F704FEF87700E94B70608959923C2
:1007700051F0682F6695669566956F7040E08770BA
:100780000E94B706089581E00895CF93DF93009704
:1007900011F1EC016B816695669566956F708A81A3
:1007A0004FEF87700E94B7068FEC97E00197F1F743
:1007B00000C000006B816695669566956F708A81B2
:1007C00040E087700E94B706EFECF7E03197F1F751
:1007D00000C0000001C081E0DF91CF9108951F9318
:1007E000CF93DF930097F1F1162FEC018A81682FE8
:1007F0006695669566956F7040E087700E94B706B3
:100800008A81682F661F6627661F9B819770990FE4
:10081000692B40E087700E94B7068881982F9170FD
:1008200080FF09C08695612F87700E944E07CE0118
:100830000E94C5031AC0911117C0612F62956F7095
:100840008881869587700E947B07CE010E94C50330
:1008500088818695612F87700E947B07CE010E9458
:10086000C50303C081E001C081E0DF91CF911F91FA
:1008700008951F93CF93DF93009709F446C0162F76
:10088000EC018A81682F6695669566956F704FEFCB
:1008900087700E94B7068A81682F661F6627661FC9
:1008A0009B819770990F692B40E087700E94B70673
:1008B0008881982F917080FF09C08695612F87707D
:1008C0000E944E07CE010E94C50318C0911115C0A9
:1008D000612F62956F708881869587700E947B0773
:1008E000CE010E94C50388818695612F87700E9482
:1008F0007B07CE010E94C50301C081E0EFECF7E069
:100900003197F1F700C0000001C081E0DF91CF9185
:100910001F910895EF92FF920F931F93CF9300972B
:1009200099F06115710591F08B017C01C0E080E0C8
:1009300004C0C7010E943904CF5FF801EC0FF11D1C
:1009400060816111F6CF03C081E001C081E0CF91E9
:100950001F910F91FF90EF900895009701F164307F
:10096000B0F44031B0F4611103C060E8640F14C00A
:10097000613019F460EC640F0FC0623019F460E963
:10098000640F0AC0633039F460ED640F05C060E89D
:1009900003C060E801C060E80E94EF03089581E0B1
:1009A0000895CF92DF92EF92FF920F93CF93DF9350
:1009B000009739F16115710531F1D22F6B017C017E
:1009C000642F70E0685F7F4F660F660F660F0E94AE
:1009D000EF038FEC97E00197F1F700C00000C0E053
:1009E00008C0F601EC0FF11D6081C7010E943904B7
:1009F000CF5FC830B0F3402F6D2FC7010E94AD0408
:100A000003C081E001C081E0DF91CF910F91FF90A1
:100A1000EF90DF90CF900895009751F061E00E9431
:100A2000EF03EFE0F7E23197F1F700C0000008951F
:100A300081E00895CF93DF93009709F4C0C0EC01E3
:100A40002FE788E391E0215080409040E1F700C01B
:100A500000008A81682F6695669566956F704FEFE6
:100A600050E087700E9457068A81982F991F992716
:100A7000991F6B816770660F692B4FEF50E087708D
:100A80000E9457066B816695669566956F708A81A0
:100A90004FEF50E087700E9457068881982F917021
:100AA00080FF1BC086956FEF70E087700E94120771
:100AB00062E0CE010E94EF03EFECF7E03197F1F72F
:100AC00000C0000068E3CE010E94EF038FEC97E0C6
:100AD0000197F1F700C000005AC0911158C08981F8
:100AE0008F3009F5888186954FEF50E060E0877080
:100AF0000E945706888186954FEF50E061E087702D
:100B00000E945706888186954FEF50E062E087701B
:100B10000E945706888186954FEF50E063E087700A
:100B20000E94570620C0888186954FEF50E064E010
:100B300087700E945706888186954FEF50E065E0E8
:100B400087700E945706888186954FEF50E066E0D7
:100B500087700E945706888186954FEF50E067E0C6
:100B600087700E94570662E0CE010E94EF03EFEC0F
:100B7000F7E03197F1F700C0000068E2CE010E9473
:100B8000EF038FEC97E00197F1F700C000006CE0F5
:100B9000CE010E94EF03EFECF7E03197F1F700C0D0
:100BA0000000CE010E940C0566E0CE010E94EF031A
:100BB000EFECF7E03197F1F700C0000001C081E0F1
:100BC000DF91CF910895862F6FEF70E00E9412079A
:100BD0000895862F913049F4E42FF0E0E758FF4F55
:100BE000608160950E944E070895911108C0E42F1E
:100BF000F0E0E758FF4F60810E944E07089581E0C2
:100C00000895982F907C59F4682F6695669566959F
:100C1000677040E051E087700E9457060895903455
:100C200059F4682F669566956695677040E050E0C8
:100C300087700E9457060895903859F4682F66957A
:100C400066956695677040E050E087700E94570691
:100C5000089581E008951F93CF93DF931F92CDB73E
:100C6000DEB7182F1982682F6695669566956770AE
:100C7000AE014F5F5F4F87700E94F006107C11F04D
:100C8000103429F48981811108C081E00BC010382B
:100C900031F48981813029F405C080E003C080E00F
:100CA00001C080E00F90DF91CF911F9108958430B3
:100CB00008F057C0683008F056C04F3F5105A9F4FE
:100CC000E82FF0E0EE0FFF1FED57FF4F0190F0818E
:100CD000E02D208181E090E002C0880F991F6A9585
:100CE000E2F7822B808380E0089541155105B1F42D
:100CF000E82FF0E0EE0FFF1FED57FF4F0190F0815E
:100D0000E02D208181E090E002C0880F991F6A9554
:100D1000E2F780958223808380E008954115514059
:100D200021F5E82FF0E0EE0FFF1FDF01AD57BF4FB9
:100D30000D90BC91A02D2C9181E090E002C0880F15
:100D4000991F6A95E2F7982F909592239C93ED5600
:100D5000FF4F0190F081E02D9081892B808380E00E
:100D6000089581E0089581E0089581E00895843038
:100D700088F5683088F54F3FA9F4E82FF0E0EE0FD2
:100D8000FF1FED56FF4F0190F081E02D208181E0A3
:100D900090E002C0880F991F6A95E2F7822B80834A
:100DA00080E0089541111AC0E82FF0E0EE0FFF1F18
:100DB000ED56FF4F0190F081E02D208181E090E021
:100DC00002C0880F991F6A95E2F78095822380837D
:100DD00080E0089581E0089581E0089581E008951C
:100DE0008430D0F46830D0F441155105C9F0E82FB3
:100DF000F0E0EE0FFF1FE557FF4F0190F081E02D6F
:100E0000808190E002C0959587956A95E2F78170A0
:100E1000FA01808380E0089581E0089581E00895DB
:100E200081E008958430B0F56F3F710569F4E82FD3
:100E3000F0E0EE0FFF1FED57FF4F0190F081E02D26
:100E40008FEF808380E008956115710561F4E82FCC
:100E5000F0E0EE0FFF1FED57FF4F0190F081E02D06
:100E6000108280E0089561157140B1F4E82FF0E040
:100E7000EE0FFF1FDF01AD57BF4F0D90BC91A02DAE
:100E80001C92ED56FF4F0190F081E02D8FEF808393
:100E900080E0089581E0089581E00895843048F568
:100EA0006F3F69F4E82FF0E0EE0FFF1FED56FF4FA4
:100EB0000190F081E02D8FEF808380E00895611133
:100EC0000CC0E82FF0E0EE0FFF1FED56FF4F019032
:100ED000F081E02D108280E00895E82FF0E0EE0F21
:100EE000FF1FED56FF4F0190F081E02D608380E001
:100EF000089581E008956295607F843098F4E82F2A
:100F0000F0E0EE0FFF1FED56FF4FA081B1818C91F5
:100F10008F708C930190F081E02D8081682B60832D
:100F200080E0089581E00895009791F0FC01208110
:100F30008BEF820F833070F43BB781E090E002C00A
:100F4000880F991F2A95E2F7832B8BBF80E00895C5
:100F500081E0089581E00895009789F04BB721E082
:100F600030E0B901FC01008002C0660F771F0A94CF
:100F7000E2F7CB01809584238BBF80E0089581E068
:100F800008959AB721E030E002C0220F331F8A95FE
:100F9000E2F7209529232ABF0895009721F1FC014B
:100FA0002081263029F0273061F02530F1F412C07D
:100FB000FC01818192819093300180932F0180E028
:100FC0000895FC01818192819093320180933101D7
:100FD00080E00895FC018181928190933401809397
:100FE000330180E0089581E0089580E0089500973E
:100FF00009F492C0FC012381243008F08FC0808165
:101000009AEF980F923008F076C0990F213019F1BD
:1010100030F02230D9F1233009F453C081C065B7D4
:10102000492F50E021E030E0F90102C0EE0FFF1F30
:101030009A95E2F7CF018095862385BF85B74F5FEC
:101040005F4F02C0220F331F4A95E2F720952823F5
:1010500025BF80E0089565B7492F50E021E030E0DA
:10106000F90102C0EE0FFF1F9A95E2F7CF01862B20
:1010700085BF85B74F5F5F4F02C0220F331F4A9570
:10108000E2F72095282325BF80E0089565B7492F12
:1010900050E021E030E0F90102C0EE0FFF1F9A9509
:1010A000E2F7CF018095862385BF65B7CA01019617
:1010B00002C0220F331F8A95E2F7262B25BF80E05E
:1010C000089565B7492F50E021E030E0F90102C0F2
:1010D000EE0FFF1F9A95E2F7CF01862B85BF65B70C
:1010E000CA01019602C0220F331F8A95E2F7262B10
:1010F00025BF80E008958530A9F4223019F023300F
:1011000031F012C085B78F7B85BF80E0089585B729
:10111000806485BF80E0089581E0089581E00895AE
:1011200081E0089581E0089581E00895CF93DF93F1
:10113000009771F0EC018FB780688FBFCE010E94DD
:101140009407CE010E94CD07CE010E94F70701C08F
:1011500081E0DF91CF9108951F920F920FB60F9209
:1011600011242F933F934F935F936F937F938F93AC
:101170009F93AF93BF93EF93FF93E0912F01F09173
:101180003001309721F0099586E00E94C107FF9158
:10119000EF91BF91AF919F918F917F916F915F91EF
:1011A0004F913F912F910F900FBE0F901F90189568
:1011B0001F920F920FB60F9211242F933F934F93CC
:1011C0005F936F937F938F939F93AF93BF93EF93AF
:1011D000FF93E0913101F0913201309721F00995B0
:1011E00087E00E94C107FF91EF91BF91AF919F915E
:1011F0008F917F916F915F914F913F912F910F90C0
:101200000FBE0F901F9018951F920F920FB60F925E
:1012100011242F933F934F935F936F937F938F93FB
:101220009F93AF93BF93EF93FF93E0913301F091BE
:101230003401309721F0099585E00E94C107FF91A4
:10124000EF91BF91AF919F918F917F916F915F913E
:101250004F913F912F910F900FBE0F901F901895B7
:04126000F894FFCF30
:10126400A30301000000077500020649000204F010
:101274008210000102030201003F065B4F666D7D90
:10128400077F6F3A003700340031003900360033ED
:101294000030003B00380035003200507265737333
:1012A400205475726E204F6E202020202020546F11
:1012B400205374617274005468652047616D652021
:1012C40057696C6C20202020537461727420496E1D
:1012D400203A2000506C61796572204F6E6520576A
:1012E400696E00506C617965722054776F2057697C
:1012F4006E005072657373205475726E204F6E20A9
:10130400546F205374617274204E65772047616D69
:101314006500000E1F1F1F0E0000040E1504040AB2
:021324001100B6
:00000001FF
